:020000040800F2
:102400009044002099250008254F0008894C0008B9
:10241000414D0008E1320008395F0008000000006B
:10242000000000000000000000000000012500087E
:10243000E13800080000000045250008F55B0008B1
:10244000B3250008B3250008B3250008B32500080C
:10245000B3250008B3250008B3250008B3250008FC
:10246000B3250008B3250008B3250008B3250008EC
:10247000B3250008B3250008B3250008B3250008DC
:10248000B3250008B3250008B3250008B3250008CC
:10249000495E0008B3250008B3250008B3250008ED
:1024A000B3250008B3250008B3250008B3250008AC
:1024B000B3250008B3250008B3250008B32500089C
:1024C000B3250008B3250008B3250008B32500088C
:1024D000B3250008B3250008B3250008B32500087C
:1024E000253A0008B3250008795C0008DFF80CD015
:1024F00000F0D2FC00480047018100089044002011
:10250000224B19680868B0E8F00F80F30988BFF320
:102510006F8F4FF0000080F311884EF00D0E704762
:102520000000000006480068006880F3088862B672
:1025300061B6BFF34F8FBFF36F8F00DF00BF00BFE7
:1025400008ED00E0EFF30980BFF36F8F0F4B1A68BF
:1025500020E9F00F106008B54FF0500080F31188AB
:10256000BFF34F8FBFF36F8F09F0ECF84FF000000F
:1025700080F31188BDE8084019680868B0E8F00FDA
:1025800080F30988BFF36F8F704700BF7404002089
:10259000EFF3058070470000064880470648004773
:1025A000FEE7FEE7FEE7FEE7FEE7FEE7FEE7FEE703
:1025B000FEE7FEE7095C0008ED24000840EA01039D
:1025C0009B0703D009E008C9121F08C0042AFAD2E9
:1025D00003E011F8013B00F8013B521EF9D27047AD
:1025E000D2B201E000F8012B491EFBD27047002255
:1025F000F6E710B513460A4604461946FFF7F0FF02
:10260000204610BD421C10F8011B0029FBD1801A86
:102610007047F0B480EA0102D40F4200B2EB410FE0
:1026200002D20246084611464A0042D0C30DDDB22E
:10263000C1F3C752AD1A202D35DAC1F3160141F4AA
:10264000000204B15242C5F1200602FA06F12A4105
:102650001044B3EBD05F23D0C4B1012DA0EBC35025
:1026600009DCF0BC4FF0004202EAC352DBB200F5D5
:10267000000000F06EBB400000F1807000EBC35022
:10268000A0F1807040EAD170490009E0490841EAB0
:10269000C071A0EBC35000F50000400800EBC35030
:1026A000F0BC00F04DBB6142012202EB4101001B76
:1026B000F6E7F0BC704781F00041AAE780F00040E7
:1026C000A7E780EA010210B502F00043400022D0E3
:1026D0004A001FD0010E01EB1261C0F35600C2F395
:1026E000560240F4000042F40002A0FB0220000465
:1026F0007F39140400D0401C50EA124001D440003D
:10270000491EC2B20C0604EBD010401C4008802ABF
:1027100002D003E0002010BD20F00100002900DA03
:102720000020184310BD30B480EA010202F00045D9
:1027300030F0004221F0004013D090B1C30DD40D11
:10274000C2F31601C0F31600E41A41F4000140F48C
:1027500000027D34914201D3641C00E04900002C4A
:1027600002DA30BC002070474FF400000023914291
:1027700001D3891A034340084FEA4101F7D151B10F
:10278000914202D14FF0004105E002D24FF0010129
:1027900001E06FF0010103EBC450284430BC00F0AD
:1027A000CFBA2DE9FE4F804681EA0300C00F0C46E8
:1027B000009021F0004123F00045B8EB0200A94150
:1027C00005D24046214690461C460B46024623F061
:1027D0000040104347D0270DC7F30A00C3F30A5146
:1027E0000290401A019040286BDAC3F3130040F4C2
:1027F000801B0098924620B10023D2EB030A63EBC2
:102800000B0B01985946C0F14002504600F077FA90
:1028100006460D4650465946019A00F07FFA10EBE5
:1028200008006141002487EA115284EAE7731A43E1
:1028300040D0009A62B3019A012A4FEA075215DC90
:10284000001B61EB02014FF0004202EA0752CDE9A2
:102850000042001C41F5801132462B4600F0B6FACA
:1028600003B0BDE8F08F40462146F9E7001B61EB5D
:102870000201001C41F5801300185B412018A2F5ED
:10288000001747EB030140EAD570B6196D4111E01E
:102890006D084FEA360645EAC0754FEA0752001B3D
:1028A00061EB0201001C41F5801149084FEA30003C
:1028B0000019514132462B4603B0BDE8F04F00F0FD
:1028C00076BA0098012240000023D0EB020263EBAD
:1028D000E073009821464FEAE074B8EB000061EB2A
:1028E0000401E9E783F000435BE781F0004158E72A
:1028F0002DE9FE4F81EA030404F0004421F0004179
:1029000000944FF0000B23F0004350EA01045ED026
:1029100052EA03045BD0C3F30A54C1F30A552C44B2
:10292000A4F2F3340194A0FB0254C1F3130141F467
:102930008011C3F3130343F4801301FB024400FB33
:10294000034E840A970A44EA815447EA8357A4FB5A
:10295000076802958D0A05FB07854FEA932C04FB57
:102960000C542705029D4FEA065847EA1637B5EB87
:1029700008056EEB070C870E920E47EA811742EAB4
:102980008312A7FB0201B6EB0B0164EB00042B0DD5
:1029900043EA0C335E1844EB1C50DA465146E7FB21
:1029A0000201C5F313044FEA0B3343EA14534FEA11
:1029B0000432019C43EA0603A4F10C040294009C37
:1029C000CDE900B400F002FA03B0BDE8F08F0020BA
:1029D0000146F9E72DE9F04D81EA030404F0004BCC
:1029E00021F0004514464FF0000A23F0004150EA60
:1029F000050220D054EA01021DD0C5F30A57024651
:102A0000C5F31303C1F31300C1F30A5640F4801554
:102A100043F48013A7EB0608101BD64608F2FD38D6
:102A200073EB050002D308F1010801E092185B4145
:102A3000B8F1000F03DA00200146BDE8F08D002058
:102A40004FF48011064684460EE0171B73EB050712
:102A500005D3121B63EB050306434CEA010C49083E
:102A60004FEA300092185B4150EA0107EDD152EA7B
:102A7000030012D082EA040083EA0501084305D06E
:102A8000101BAB4106D20122002306E000224FF0CA
:102A9000004302E06FF0010253101AEB06004CEB0A
:102AA000085110EB0A0041EB0B01BDE8F04D00F0BE
:102AB0007EB970B521F0004303430CD0C1F30A5531
:102AC0000024D5EB040564EB0403D617AD1AB3411B
:102AD00002DB0020014670BD201841EB025170BDA1
:102AE000C10F80EAE0700844CA079623002100F075
:102AF00030B90EB5C10F80EAE0700844CA07002162
:102B000040F233438DE80E000A460B4600F05EF9B2
:102B100003B000BD0EB540F2334102910021CDE972
:102B200000110A460B4600F051F903B000BD00F059
:102B3000004220F00040C10DC0F3160040F4000038
:102B40007F2901DA00207047962903DCC1F1960144
:102B5000C84001E096398840002AF4D040427047CE
:102B600020F00040C10DC0F3160040F400007F29A2
:102B700001DA00207047962903DCC1F19601C840B4
:102B8000704796398840704700F0004230F00040AE
:102B90000AD0C10D01F56071C0F3160042EA01517F
:102BA000C2084007114370470020014670470000EB
:102BB00030B5041E71F1000404DB4FF000444042C4
:102BC00064EB0101141E73F1000405DB1C464FF099
:102BD0000043524263EB04038B4208BF824230BD84
:102BE00030B5041E71F1000404DB4FF00044404294
:102BF00064EB0101141E73F1000405DB1C464FF069
:102C00000043524263EB0403994208BF904230BD37
:102C100001F0004330B421F0004150EA010206D037
:102C20000A0DA2F56072C1F31301002A02DC30BC68
:102C300000207047440F44EAC104C100E01830BCD2
:102C400000EBC25000F07CB8002801DBC0F100406E
:102C5000002901DBC1F1004181427047002801DBFE
:102C6000C0F10040002901DBC1F1004188427047FA
:102C700030B50B46014600202022012409E021FA4C
:102C800002F59D4205D303FA02F5491B04FA02F549
:102C90002844151EA2F10102F1DC30BD2DE9F05FE0
:102CA0000546002092469B468846064681464024BB
:102CB0001BE0284641464746224600F0FFF85346AF
:102CC0005A46C01A914110D311461846224600F0C8
:102CD00016F82D1A67EB01084F4622460120002105
:102CE00000F00DF817EB00094E41201EA4F101047D
:102CF000DFDC484631462A464346BDE8F09F202A9D
:102D000004DB203A00FA02F1002070479140C2F142
:102D1000200320FA03F3194390407047202A06DB72
:102D2000CB17203A41FA02F043EAE07306E041FA99
:102D300002F3D040C2F12002914008431946704787
:102D40000029A8BF7047401C490008BF20F00100BF
:102D5000704710B4B0FA80FC00FA0CF050EA01049D
:102D600004BF10BC704749B1CCF1200421FA04F42F
:102D700011FA0CF118BF012121430843A3EB0C0108
:102D8000CB1D4FEA00614FEA102042BF002010BC6B
:102D9000704700EBC35010440029A4BF10BC70471B
:102DA000401C490008BF20F0010010BC704710B55E
:102DB000141E73F1000408DA401C41F1000192185E
:102DC0005B411A4301D120F0010010BD2DE9F04D07
:102DD00092469B4611B1B1FA81F202E0B0FA80F25C
:102DE00020329046FFF78BFF04460F4640EA0A0068
:102DF00041EA0B0153465A46084313D0114653EAA1
:102E0000010019D0C8F14002504600F057F80546BD
:102E10000E46504659464246FFF771FF084305D01B
:102E2000012004E020463946BDE8F08D002005432E
:102E300046EAE0762C4337430A986305E40AA0EBA0
:102E400008000022FD0A44EA47540A3002D5002057
:102E50000146E9E7010510196941DDE90845001956
:102E60006941BDE8F04DA2E7C1F30A52C1F3130175
:102E700040F2FF3341F480119A4202DA0020014609
:102E8000704740F233439A42A2F2334202DC52428C
:102E900000F014B8FFF733BF064C074D06E0E068BA
:102EA00040F0010394E8070098471034AC42F6D391
:102EB000FFF720FBE4FE000804FF0008202A04DBE3
:102EC000203A21FA02F00021704721FA02F3D040A3
:102ED000C2F12002914008431946704770B58C1822
:102EE00010F8015B15F0070301D110F8013B2A111E
:102EF00006D110F8012B03E010F8016B01F8016B0B
:102F00005B1EF9D12B0705D40023521E0DD401F806
:102F1000013BFAE710F8013BCB1A921C03E013F8CF
:102F2000015B01F8015B521EF9D5A142D8D3002004
:102F300070BD0029816802D041F0010101E021F05B
:102F40000101816070470029816802D041F48071DD
:102F500001E021F480718160704700000D4910B5D7
:102F6000884202D1012144150AE00B49884202D16E
:102F70000121041504E0094988420AD10121CC034A
:102F8000204602F093F92046BDE81040002102F0EF
:102F90008DB910BD0024014000280140003C0140D3
:102FA000014600208968490700D501207047014685
:102FB00000208968090700D50120704710B54268D4
:102FC0000E4B0C791A400B6842EA0422134343600B
:102FD00082680B4B1A40D1E9024323434C7942EA01
:102FE000440213438360C26A097C22F47002491EC2
:102FF000C9B242EA0151C16210BD0000FFFEF0FFFC
:10300000FDF7F1FF70B5072609290AD9C568A1F1B6
:103010000A0404EB4404A640B543A3401D43C56025
:1030200007E0056901EB4104A640B543A3401D43F9
:1030300005611F23072A09D2446B521E02EB82024C
:1030400093409C4391400C43446370BD0D2A09D2C8
:10305000046BD21F02EB820293409C4391400C43CD
:10306000046370BDC46A0D3A02EB820293409C4334
:1030700091400C43C46270BD816841F008018160D9
:1030800070470029816802D041F4A00101E021F4D9
:10309000A00181607047816841F004018160704740
:1030A0002DE9F0410446042004F088FB3C4E716891
:1030B0004988401A00B2962103F0A8FF05B2706853
:1030C000002D02DBB0F9000001E0B0F90400A038E7
:1030D000FFF706FD07462846FFF702FD3946FFF7D2
:1030E00022FBE060012004F069FB71680989401A45
:1030F00000B2962103F08AFF05B27068002D02DB52
:10310000B0F9060001E0B0F90A00A038FFF7E8FCCA
:1031100007462846FFF7E4FC3946FFF704FB20602A
:10312000022004F04BFB7168C989401A00B2962155
:1031300003F06CFF05B27068002D02DBB0F90C00E3
:1031400001E0B0F91000A038FFF7CAFC0746284696
:10315000FFF7C6FC3946FFF7E6FA6060032004F08B
:103160002DFB7168898A401A00B24FF4967103F002
:103170004DFF05B27068002D02DBB0F9120001E0CE
:10318000B0F91600A0F59B70FFF7AAFC064628468A
:10319000FFF7A6FC3146FFF7C6FAA060BDE8F08154
:1031A0008400002030B591B001210C2002F072F8AB
:1031B0000121480202F06EF80121084602F052F89F
:1031C0000720ADF8400000248DF8434010A93F4887
:1031D00000F016FD0320ADF8400010A93C4800F0B7
:1031E0000FFD3C4D284600F071F93B4800903B48EC
:1031F000CDE901043220CDE9030480200590400090
:10320000069080000790202008900002CDE9090474
:103210006946284600F0CCF90121284600F04AF919
:103220002D4D4C3D2846FFF799FE01218DF83010B9
:103230008DF831100B944FF46020CDE90D0405207A
:103240008DF83C000BA92846FFF7B8FE012128465F
:10325000FFF76FFE01212846FFF775FE4FF400408F
:1032600001F0F6FF0723012200212846FFF7CAFEDE
:103270000723022201212846FFF7C4FE0723032269
:1032800002212846FFF7BEFE072304220821284614
:10329000FFF7B8FE0723052209212846FFF7B2FEF3
:1032A0002846FFF7E9FE2846FFF781FE0028FAD1FD
:1032B0002846FFF7F0FE2846FFF772FE0028FAD1F5
:1032C00001212846FFF7DDFE11B030BD00080140A6
:1032D000000C0140080002404C2401403C0B00203F
:1032E000FEE7C1B2000A40EA012070472DE9F84F1D
:1032F0000020ADF800004BF6BF7648F280084A4D3A
:103300004A4C40F68F7ADFF8289148F60F7B494FF8
:103310002FE0088810F00F0089F8000032D007EB8A
:103320008001D1F8002CADF80020BDF80020120477
:103330000BD5D1F8002C02EA0A02C1F8002C3E4954
:1033400001EB800050F8040C8047BDF80000000637
:103350000FD599F8000007EB8001D1F8002C02EAA4
:103360000B02C1F8002C354901EB800050F8040C29
:1033700080472D4844300068314908800004C8D493
:10338000BDE8F88F28682080208800F03000608039
:10339000208800F4405020802868304080F400509D
:1033A00080F0200040EA080028600888C00617D492
:1033B000296801EA0B01296001F06AFC28E02188F4
:1033C000890401D580F400506188C90628D4618839
:1033D000890601D580F0200040EA08002860CFE788
:1033E0002868ADF80000BDF80000000506D5296882
:1033F00001EA0A01296002F0E9F909E0BDF80000DC
:103400000004B6D5286800EA0A00286001F0B4FE7E
:10341000286821883040C904D1D580F48050CEE797
:1034200080F01000D3E70000005C0040160600208A
:103430000406002000500040400500202405002024
:103440001A050020810008480844D0F8001C4904EF
:1034500009D5D0F8001C48F68F7211404CF280025A
:103460001143C0F8001C704700500040810008481C
:103470000844D0F8001C490609D5D0F8001C48F6CD
:103480008F72114048F2C0021143C0F8001C70470F
:1034900000500040810006480844D0F8001C48F65F
:1034A0008F62114048F280021143C0F8001C70473F
:1034B000005000400029016802D041F0010102E003
:1034C0004FF6FE72114001607047000001684FF630
:1034D000FE72114001600021016041608160C160A5
:1034E0003149314A0839904203D1486840F00F0011
:1034F00006E02D4A1432904204D1486840F0F000B2
:1035000048607047284A2832904203D1486840F406
:103510007060F5E7244A3C32904203D1486840F499
:103520007040EDE7204A5032904203D1486840F4A1
:103530007020E5E71C4A6432904203D1486840F4A9
:103540007000DDE7184A7832904203D1486840F0B5
:103550007060D5E7154A111F904203D1086840F00A
:103560000F0006E0114A1432904204D1086840F07E
:10357000F000086070470D4A2832904203D1086875
:1035800040F47060F5E7094A3C32904203D1086884
:1035900040F47040EDE7054A50329042EAD10868A5
:1035A00040F47020E5E700000800024008040240F3
:1035B00030B5026847F6F0739A430C6A8B68234370
:1035C000D1E904452C4323438C692343CC6923432D
:1035D0004C6A23438C6A234313430360CA684260E6
:1035E0000A6882604968C16030BD00002DE9F0477B
:1035F000DFF89490254F4FF03008D9F8001001F112
:103600001005088A0E7A08B9042E04D0AC88A042AE
:1036100015D8042614E01E480178012903D0072696
:10362000102038802BE01B4A002112681A4B12042C
:1036300003EBD2325160A7F8008001701FE0022630
:10364000844200D90446A968204688478246002063
:1036500001F0F2FA01462246504602F06FFC214684
:10366000002002F00FF82888001B2880688820447A
:103670006880A7F8008009494FF440500880D9F8C5
:1036800000000672BDE8F08708060020180600203A
:1036900000060020505C004000600040160600203C
:1036A0002DE9F047224EDFF88C803027346834F85B
:1036B000100FA168A9B100B3A588854200D90546BD
:1036C0002846884781462088401B208060882844FF
:1036D0006080002001F090FA01462A46484601F039
:1036E0006FFD208848B114494FF4405008800021F4
:1036F000084601F0C7FFA8F800702088A18888421A
:1037000001D3032001E020B1052031680872BDE833
:10371000F087316806200872084900200968084AC5
:10372000090402EBD1314860A8F80070EFE700000F
:10373000080600201806002016060020505C0040F5
:1037400000600040F8B55D4C5D4D092620680027FB
:1037500029684278062A05D0AAB1082A4DD00A2A3B
:1037600050D06BE00278520668D18078012804D0EE
:10377000022804D0032804D060E0C96956E0096A31
:1037800054E0496A52E04288B2BBC288022A55D14D
:1037900002798ABB0278530601D1838833B102F0E3
:1037A0007F02012A04D0022A0CD047E045493DE0BF
:1037B0008A69407900219047F0B92068807A002812
:1037C000F4D13BE0417901F00F0001F070020B06EB
:1037D0003D4901EB8001D1F8001C03D5C1F3011173
:1037E000090102E0C1F301310903384B1B78834220
:1037F00024D90AB90029D9D120E0007840061DD18A
:10380000334913E0027802F07F02012A16D1827A4E
:10381000A2B1428892B9027982B9C288012A0DD137
:103820008A6940790021904740B92A4931B120681E
:103830004782816100208847002006E029682068CF
:10384000096940788847032813D021680A8AA2F5BD
:103850007F43FF3B0BD002280ED06AB108780006E8
:1038600026D5C888009082420AD9088218E00E72D4
:10387000F8BD20680672F8BD4FF008000872F8BD68
:103880000ED22868144B90F82C00824201D21F708F
:1038900006E0B2FBF0F400FB142008B90120187018
:1038A000286890F82C008882BDE8F840FFF79EBE9B
:1038B00003200872094900030880F8BD08060020AB
:1038C0000C0600209D59000800500040C80500204B
:1038D000315900087559000800060020160600201E
:1038E000704700002DE9F047274C05462078002856
:1038F00048D0284604F062F86061A06195F9001094
:103900004FF00008814201DD85F800802978A1464A
:103910001D4C401A1C34C6B268782169884200D810
:103920000026194866611C3001F010F9164838303D
:1039300086616978016101F077F820696978C7B21A
:10394000814200D20F4600240BE03019C0EBC000CA
:1039500005EB8002C4EB04111420133100F0DAFEF1
:10396000641CBC42F1DBD9F818000121C0EBC00097
:1039700005EB8000C9F810004C46817001F052F848
:1039800084F80080BDE8F087880100201C4810B54D
:10399000B0F80211B0F8002191422FD0B0F8021116
:1039A000B0F80021914205D2B0F80011B0F8022120
:1039B000891A03E0B0F80211C1F580718CB2402C75
:1039C00000D94024B0F80211B0F802212244A0F836
:1039D0000221B0F80221FF2A02D90022A0F8022118
:1039E00008442246C02102F0A9FA2146012001F034
:1039F00049FEBDE81040012001F06ABE10BD000084
:103A00000C3D002010B50649032002F055FAC1B262
:103A1000034802F077FABDE81040032001F010BE21
:103A20001440002010B54FF40054204600F014F864
:103A3000012808D10448016801B188472046BDE843
:103A4000104000F003B810BD2804002001490860B0
:103A50007047000014040140064A01460020126825
:103A6000044B0A4014331B680B4202D0002A00D0DA
:103A7000012070470004014030B51A4A837901687B
:103A800053B313688B431360111D0B680468A34381
:103A90000B60017911440B68046823430B60114BE0
:103AA000083319680468A14319601C1D2168056862
:103AB000A94321604179102905D011440A680068A2
:103AC00002430A6030BD1968026811431960216819
:103AD00000680143216030BD0079104402688A43C8
:103AE000026030BD000401400149032008607047B6
:103AF000F005002070B505464FF43026304600F042
:103B000059F8042811D1094C206940F002002061C5
:103B10006561206940F040002061304600F04AF8BD
:103B2000216941F6FD721140216170BD0020024003
:103B300008490420CA68D20701D001207047CA682A
:103B4000520701D502207047C968C906FBD503207A
:103B500070470000002002400248016941F08001E6
:103B60000161704700200240F0B506464FF400574F
:103B70000D46384600F01EF804280CD1064C20698A
:103B800040F0010020613580384600F013F82169CB
:103B9000BA1E11402161F0BD0020024003480249D5
:103BA000416003494160704723016745002002409E
:103BB000AB89EFCD00B50346FFF7BAFF02E0FFF790
:103BC000B7FF5B1E012803D0002B00D1052000BDEC
:103BD000002BF4D1FAE7000010B58A0721F00304A6
:103BE0000649120F21440F238C6893409C438C603C
:103BF0008B68904003438B6010BD000000000140C3
:103C0000F0B5CC78002204F00F03E40601D58C78DF
:103C100023430C784FF00F0C14F0FF0F4FF0010E00
:103C20001BD005680E880EFA02F42640A64210D179
:103C300096000CFA06F725EA070703FA06F5CE7890
:103C40003D43282E02D0482E02D002E0446100E01D
:103C50000461521C082AE5D305600A88FF2A1CD992
:103C60004468002202F108060EFA06F50E882E407E
:103C7000AE420ED196000CFA06F7BC4303FA06F7E3
:103C8000CE783C43282E00D14561CE78482E00D115
:103C90000561521C082AE5D34460F0BDF0B5144C10
:103CA000002801DAE36900E06368450D2E0185B262
:103CB000C0F30157B540C0F30342032F05D0C6023D
:103CC0000AD503269640B34307E023F07062636889
:103CD00023F07063636002E0AB4343F0706201B1B4
:103CE0002A43002801DAE261F0BD6260F0BD000005
:103CF000000001400246002092680A4200D00120E4
:103D0000704741617047016170472DE9F047140029
:103D1000DDF820907DD0650065430719012B45D063
:103D2000A0EB0408022B7ED0032B74D0042B70D19F
:103D3000B8460E460027F1B21FFA88F04A4600F056
:103D4000C3FD60007F1C6043790001FB0700401B3E
:103D5000614200EB4100401C761E002802DDA8F104
:103D60000108641EA742E6DBF1B21FFA88F04A465A
:103D700000F0AAFD20464000641E801E60437900CA
:103D800001FB0700401B00EB4700401CA8F10108A5
:103D9000002801DC761E7F1C002CE5DCF1B21FFA46
:103DA00088F04A46BDE8F04700F08EBD8846002600
:103DB00008F0FF01B8B24A4600F086FD6000761CAC
:103DC0006043710001FB0600401B614200EB4100B3
:103DD000401C08F10108002801DD641E7F1EA64278
:103DE000E6DB08F0FF01B8B24A4600F06DFD204660
:103DF0004000641E801E6043710001FB0600401BF2
:103E000000EB4600401C7F1E002806DC08F101087C
:103E100002E075E007E03DE0761C002CE1DC08F0F4
:103E2000FF01B8B2BDE70F460026F9B21FFA88F0CD
:103E30004A4600F049FD6000761C6043710001FBBA
:103E40000600401B614200EB41007F1C401C002823
:103E500002DD641E08F10108A642E6DBF9B21FFA92
:103E600088F04A4600F030FD20464000641E801E67
:103E70006043710001FB0600401B00EB4600401C44
:103E800008F10108002801DC7F1C761C002CE5DC11
:103E9000F9B284E70E460027F1B21FFA88F04A46CD
:103EA00000F012FD60007F1C6043790001FB0700F9
:103EB000401B614200EB4100401C761E002802DDE1
:103EC00008F10108641EA742E6DBF1B21FFA88F090
:103ED0004A4600F0F9FC20464000641E801E604304
:103EE000790001FB0700401B00EB4700401C08F174
:103EF0000108002801DC761E7F1C002CE5DC4DE764
:103F0000BDE8F0877CB50446C0680D460E287DD319
:103F1000A0681E287AD3206903F066FCA168884255
:103F200074D82575D4E900010C268DB10122083022
:103F3000083100F00CFA206903F056FCA168081A59
:103F4000218801EB50000021CDE9006180B26CE0D6
:103F500000220830083100F0FAF901250095D4E973
:103F600000010323082208300831FFF7CEFE009538
:103F7000A16820684218616808300B46093A00F0D1
:103F800065FB0095A1682068042308446168082245
:103F900009380831FFF7B9FE0095E1686068A2684A
:103FA000014420684B1E02440830491E093A00F0C3
:103FB0004DFB0095E1686068A26801442068012318
:103FC0001044082209380939FFF79FFE00956168FF
:103FD000E0680B18206808310246093B00F036FB08
:103FE0000095E168606802230144206808220830D7
:103FF0000939FFF78AFE00956168E068A2680B182E
:1040000020681044421E401E083100E017E0093BC2
:1040100000F01CFB206903F0E7FBA168081A218867
:10402000CDE9006501EB500080B2E168A2880C394F
:1040300002EB510189B20C23226906F00BFA7CBD18
:104040002DE9FF4F8BB004460D988A4600287DD09D
:104050000D9900940AEB010701940A97402F04DAA6
:10406000F9B2A0B20E9A00F02FFC03940D990294BD
:10407000BAEB0106099604D4F1B2A0B20E9A00F090
:1040800023FC0D98D3462518CDE907A5802D05DA28
:104090000BF0FF01A8B20E9A00F016FC0D98241A3E
:1040A000CDE905A405D40AF0FF01A0B20E9A00F0F4
:1040B0000BFC0D98012849D04042032101EB400838
:1040C0000D984FF00009049094E0B8F1000F04DA65
:1040D00008EB890000F1060818E0A9EB010108EBE4
:1040E000810000F10A080498641C401E04900A989C
:1040F0006D1E401E0A900998761C401C0990089875
:10410000401E08900698401C7F1E0690019809F1F9
:104110000109401C019000980BF1010B401E00901A
:1041200003980AF1010A401C03900298401E029075
:104130000798401E07900598401E0590019880281A
:1041400008DC002F06DBF9B280B200E056E00E9AE0
:1041500000F0BAFB0098002808DB0A98002805DB6D
:10416000C1B200980E9A80B200F0AEFB039880288E
:1041700006DC402E04DCF1B280B20E9A00F0A4FB03
:104180000298002808DB0998402805DCC1B2029893
:104190000E9A80B200F098FB802D08DCBBF1000F76
:1041A00005DB0BF0FF01A8B20E9A00F08DFB002C8E
:1041B00008DBBAF1000F05DB0AF0FF01A0B20E9A8E
:1041C00000F082FB0898802808DC0798402805DC6E
:1041D000C1B208980E9A80B200F076FB06980028CB
:1041E00008DB0598402805DCC1B206980E9A80B21B
:1041F00000F06AFB04998945FFF667AF0FB0BDE890
:10420000F08F04F085BD38B51446C9B280B26A4655
:1042100000F097FB9DF8001001206140884338BDF5
:104220007CB50446C0680E287AD3A0681E2877D3D0
:10423000206903F0D9FAA168884271D80125009558
:10424000D4E900010323082208300831FFF75DFD9F
:104250000095A16820684218616808300B46093A49
:1042600000F0F4F90095A16820680423084461680F
:10427000082209380831FFF748FD0095E1686068B9
:10428000A268014420684B1E02440830491E093AC6
:1042900000F0DCF90095E1686068A26801442068DC
:1042A00001231044082209380939FFF72EFD009533
:1042B0006168E0680B18206808310246093B00F08D
:1042C000C5F90095E168606802230144206808226E
:1042D00008300939FFF719FD00956168E068A268A8
:1042E0000B18206808311044421E401E093B00F0A4
:1042F000ADF9207D0C26A0B1D4E9000101220830DF
:10430000083100F024F8206903F06EFAA168081A59
:10431000218801EB50000021CDE9006180B20BE063
:1043200014E0206903F060FAA168081A2188CDE939
:10433000006501EB500080B2E168A2880C3902EB05
:10434000510189B20C23226906F084F87CBD2DE965
:10435000F74FD6B00C460546802870D2402C6ED25E
:10436000E1B2A8B26A4600F0ECFA9DF80020589835
:1043700002F0010100F00100814260D02146284690
:10438000539400F0B9FA064654909DF80020214657
:10439000284600F0DEFA529030444008CDE9290466
:1043A000CDE901040124254601E0002D73D029A8A0
:1043B00000EBC5006D1E50F8081D51914668EDB226
:1043C0009DF800203146519800F096FA82469DF8FB
:1043D00000203146519800F0BCFA8046761C9DF8CA
:1043E000002031465198FFF70EFF20B19DF80020C4
:1043F0003146519812E0574607E09DF800203146BB
:104400003846FFF700FF10B97F1C4745F5D94745EF
:10441000CBD851979DF800203146384600F099FAE4
:1044200080469DF800203146519800F065FA82469A
:10443000142C1DD28146A0F1010B574616E079E0FD
:104440009DF80020711E3846FFF7DDFE20B3494677
:10445000CB4508D001A88B4640F8347000EBC4006F
:10446000641CE4B24660142C02D27F1C4745E7D995
:1044700008EB0A00400851901FFA88F2F1B21FFAC7
:104480008AF0589B00F0CCF8142DA7D2D146AAF19F
:10449000010B574618E01CE0B946E4E79DF8002000
:1044A000711C3846FFF7AFFE88B14946CB4508D0AE
:1044B00029A88B4640F8357000EBC5006D1CEDB2A5
:1044C0004660142D8AD27F1C474587D8E6E7B94657
:1044D000F7E71CB301A800EBC400641E50F8081DE8
:1044E00051914668E4B29DF800203146519800F0A1
:1044F00003FA82469DF800203146519800F029FACF
:104500000746761E9DF8002031465198FFF77BFE46
:1045100098B19DF800203146519824E0002D7FF499
:1045200044AF5298589B82B25398C1B2549880B20B
:1045300000F076F859B0BDE8F08F5046D04608E05C
:104540009DF800203146FFF75EFE20B908F101001A
:104550008046B845F4D94046B845BAD8CDF844812C
:104560009DF80020314600F0F4F907469DF8002040
:104570003146519800F0C0F98246142D1ED2D14622
:10458000AAF1010B5046C84616E09DF80020711CA8
:10459000FFF739FE28B34946CB4508D029A88B46FA
:1045A00040F8358000EBC5006D1CEDB24660142D5F
:1045B00004D208F101008046B845E6D907EB0A00AD
:1045C00040085190BAB2F1B21FFA8AF0589B00F03D
:1045D00027F8142C95D2D146AAF1010B5046C846B3
:1045E00018E0C146E3E79DF80020711EFFF70BFEBF
:1045F000A0B14946CB4508D001A88B4640F834808D
:1046000000EBC400641CE4B24660142CE2D208F152
:1046100001008046B8453FF674AFE4E7C146F4E7D1
:104620002DE9F04115461E460F460446A84202D920
:10463000D0B22546044632463946204600F044F9B9
:10464000641CA4B2A542F6D2BDE8F0812DE9FF5F5B
:1046500005460C4603989346511B021B4FF0FF374B
:10466000002902DD4FF0010801E005DAB846002A12
:104670000BDD4FF0010713E00E9BC2B204B0E1B2B4
:10468000A8B2BDE8F05F00F022B909DB0E9B04B0D0
:104690001FFA8BF2E1B2A8B2BDE8F05FFFF7C0BF2E
:1046A00008FB01F007FB02F14FEA400A4FEA41091B
:1046B000884213DBA9EB0006A9EB0A0A0BE0E1B282
:1046C000A8B20E9A00F000F94544002E01DA4E44DB
:1046D00001E056443C445D45F1D113E0AAEB0106EC
:1046E000AAEB09090BE0E1B2A8B20E9A00F0ECF8CF
:1046F0003C44002E01DA564401E04E444544039800
:104700008442F0D10E9A04B0E1B2A8B2BDE8F05FE5
:1047100000F0DAB82DE9FC4114460D460646802823
:1047200005D8402D03D8022D01D3122E02D200202D
:10473000BDE8FC81E0680028FAD0A2781023A91E09
:10474000A6F112000C278AB1626822B1C9B2C0B2C8
:10475000009304F0FFFB0020CDE90070A9B2B0B2D5
:104760000C23E26805F076FE0120E1E7A2682AB199
:104770000093C9B2C0B2102304F0ECFB0120EBE7B8
:1047800010B511B10121002401E0002101240548E8
:10479000FFF7B8FB21460348BDE810401830FFF78B
:1047A000B1BB00003C040020FEB58168044614291A
:1047B0003CD3E068142839D325686A18802A35D894
:1047C00061680B18402B31D800272846521E5B1E0B
:1047D000009700F0F8F8012500956168E068A2688C
:1047E0000B1820685B1E0244521E00F0CAF8208895
:1047F0002189304B0144491E8AB2217980B20E31A1
:10480000C9B21B78FFF70CFF0095A1682068421819
:104810006168521E01F10D0300F0D5F8206903F024
:10482000DCF80146A068821E914201D90020FEBD3D
:104830000C2680B20096CDE90170A0883346401C5A
:1048400081B22088226980B205F05AFE1A480775A5
:10485000A16901612168491D0160E2686168114434
:10486000C268891A091F4160FFF7DAFC1248183044
:104870000575E1690161A268216811448268891A9D
:10488000891F0160E26861681144C268891A091FC2
:104890004160FFF7C5FCCDE90065A0880C2311300D
:1048A00081B220886269801D80B205F0D3FD0120AD
:1048B000FEBD0000380400203C0400200148007DBB
:1048C000704700003C040020C0B204F037BA2DE964
:1048D000F04115461E4607460C46A94201D90D4631
:1048E0001446324621463846FFF7EEFF641CE4B218
:1048F000A542F6D2BDE8F081F8B5401E0E46040090
:1049000002F001050ED0F1B2A0B26A4600F019F82B
:104910009DF8000000F00100A84201D0601CF8BD25
:10492000641EF0D1F1B200206A4600F00AF89DF84A
:10493000000000F00100A84201D00120F8BD0020D5
:10494000F8BD10B51446C0B204F030FA2070002053
:1049500010BDF8B50E46441C02F001050DE0F1B2A1
:10496000A0B26A46FFF7EDFF9DF8000000F00100DD
:10497000A84201D0601EF8BD641C802CEFD38020BB
:10498000F8BD2DE9F0411C46DDF8188015460E46AD
:10499000074692B2C9B280B24346FFF741FEAAB2BF
:1049A000E1B2B8B24346FFF73BFEE2B2F1B2B8B2B1
:1049B0004346FFF78CFFE2B2F1B2A8B24346BDE82E
:1049C000F041FFF784BF2DE9F0411746DDF818806C
:1049D0001E460C460546B84201D915460746B44264
:1049E00001D91C460E46B44207D1BAB2E1B2A8B210
:1049F0004346BDE8F041FFF713BEBD420ED1F2B20F
:104A0000E1B2A8B24346BDE8F041FFF760BFBAB2D9
:104A1000E1B2A8B24346FFF703FE641CB442F6D9E4
:104A2000BDE8F08104F0D6B9F8B5040054D0A2680E
:104A30000A2A51D3E06814284ED3012500956168F5
:104A40000B1820685B1E0244521EFFF79AFF0826CF
:104A5000009620892178083801EB50002179C0B2F6
:104A6000491CC9B233461D4A04F074FA00962079F5
:104A7000217B227808440938C1B2208908230838EC
:104A800002EB5000154AC0B2083204F063FA0095F8
:104A9000A168206842186168521E09310B46FFF771
:104AA000D5FD0095E1686068A268014420680A3974
:104AB00002440B46521EFFF7C9FDD4E90421E06809
:104AC0001438914202D24143B1FBF2F0E06120463A
:104AD000BDE8F84000F004B8F8BD0000A9F10008F6
:104AE0002DE9F84304468189808B091A14398EB266
:104AF0002188721E491C1FFA81F8A18810440A31CE
:104B00008DB2218980B2C91E89B2002208EB01074B
:104B10002B1800923A4629464046FFF754FFD4E945
:104B20000401884201D8002005E0A1697143401EBC
:104B3000B1FBF0F080B2012100912918E2694046F2
:104B400053183A46FFF73FFFBDE8F883FEB581688A
:104B5000044614293CD3E068142839D32668721817
:104B6000802A35D861680B18402B31D80025304693
:104B7000521E5B1E0095FFF726FF01260096616816
:104B8000E068A2680B1820685B1E0244521EFFF703
:104B9000F8FE20882189174B0144491E8AB22179E9
:104BA00080B20E31C9B21B78FFF73AFD0096A168BA
:104BB000206842186168521E01F10D03FFF703FFE0
:104BC000A06902F021FF0146A068821E914201D92E
:104BD0000020FEBD0C2180B20091CDE90150A088DB
:104BE0000C23401C81B22088A26980B205F088FCA9
:104BF0000120FEBD380400200549096889B201EB97
:104C0000C000044901EB4000008980B270470000F9
:104C1000505C0040006000400549096889B201EB22
:104C2000C000044901EB40008089C0F309007047CF
:104C3000505C0040006000400449096889B201EB03
:104C4000C000034931F8100080B27047505C00404A
:104C5000006000400A4810B50168001D0468001D8E
:104C6000006808180BD00822064900F03FF80549F3
:104C700020460422BDE81040103100F037B810BDC6
:104C8000E8F7FF1FFA040020FEE772B67047000045
:104C900010B5134C2068017A022904D0042902D0EF
:104CA000062905D015E0FEF7A1FC2068007A11E086
:104CB0004178052909D10178490606D1C07800F06C
:104CC00053FC08480068006A80470748006880680D
:104CD0008047082021680872BDE8104000F080BAC3
:104CE00008060020100600200C060020F0B5002366
:104CF0000A24302537261F4610E0B4EB107F02D976
:104D000005EB107C01E006EB107C01F813C001EB11
:104D1000430C00015B1C8CF80170DBB29342ECD3B6
:104D2000F0BD00000448817A044809B1052100E083
:104D3000012101607047000074400020F005002050
:104D4000FEE700002DE9F84F754D6868FEF7CAFDD3
:104D5000002002F0D1FD002600B1EE60DFF8C0A116
:104D60004FF001080AF1380AAAF11C04012863D0A7
:104D7000022804D003287DD004285CD1A9E03E237A
:104D80007522122101200096FFF71DFEA8696A68AE
:104D9000C0EBC00102EB810129618E70401CA8614B
:104DA0006A685178491E814200DCA961A869A4465D
:104DB000C0EBC00002EB8000286180F802806968C7
:104DC0000878401C43B20B7048782269904205D89D
:104DD0000746834211DB401E08700EE0D7B2521E18
:104DE00093420AD90A70DCF81010411ADCF814005A
:104DF000814202D9401CCCF814000024E14611E0A5
:104E0000D9F814006968C0EBC00001EB8000C4EB66
:104E1000C40100EB8102C4EB041114201331FFF72D
:104E200079FC641CBC42EBDB3D48A9693830CAF808
:104E30001810FFF755FE51E03E2375221221012084
:104E40000096FFF7C0FDA8696A68C0EBC00102EBDD
:104E500081012961401E8E70A861002800DCAE61CE
:104E6000A8696968C0EBC00001EB8000286180F888
:104E7000028000E030E0686822460178491E49B2AD
:104E80000170477823699F4203D8002909DA067028
:104E900007E0DFB2002904DA0670506908B1401E4D
:104EA00050610024914611E0D9F814006968C0EB04
:104EB000C00001EB8000C4EBC40100EB8102C4EB35
:104EC000041114201331FFF725FC641CBC42EBDBFA
:104ED000AAE702F0DDFD01E002F0AAFD02F066FDA6
:104EE000072803D12869006900B18047E868411CA0
:104EF000E960642811DDEE602869416949B1867076
:104F000068696968C0EBC00001EB8000286180F827
:104F10000280BDE8F84F02F045BABDE8F88F000006
:104F2000880100207047704770B58AB001211420B5
:104F300000F0B0F90121080300F0ACF9E020ADF871
:104F4000140003208DF816002F4D18248DF81740FB
:104F500005A92846FEF754FEADF8144010268DF83A
:104F6000176005A92846FEF74BFE6C14ADF81440F7
:104F700048208DF8170005A92448FEF741FE0D21B1
:104F80000220FEF729FE069400248DF81C400C2018
:104F90008DF81D0001258DF81E5006A8FEF76CFD4A
:104FA00028208DF8200006208DF821008DF8224061
:104FB0008DF8235008A800F02FF8ADF800404FF40A
:104FC0008270ADF80200ADF808406802ADF80A0042
:104FD000ADF80C6007200E4EADF80440ADF810009F
:104FE000ADF80640ADF80E406946304600F0F3F9E2
:104FF0000121304600F0DAF90648C0F89051C0F8B7
:105000008C410AB070BD0000000801400010014052
:10501000003001400000214230B50F23C2780178F2
:105020000125F2B1144A126801F1E02102F4E062B4
:10503000C2F5E062120AC2F10404D3404278A240F1
:1050400084781C401443220181F80024007800F089
:105050001F018D404009800000F1E020C0F80051A0
:1050600030BD01F01F0085404809800000F1E020BC
:10507000C0F8805130BD00000CED00E0024908434B
:1050800002490860704700000000FA050CED00E0DE
:10509000024A1140014302480160704780FFFF1F30
:1050A00008ED00E070B52F4D296808784C7842066D
:1050B00006D000F07F00012828D002282BD035E050
:1050C000092C06D0052C07D0032C0ED0012C14D0AF
:1050D0002CE000F0ADFC28E0C8787F282ED8887836
:1050E00060BB888850BB887A27E0C87801281DD12A
:1050F0008888D8B900F0B8FC17E0C878012815D125
:10510000888898B9487A80060AD40FE00B2C0DD114
:1051100000F000FD09E0012C02D0032C03D005E0D3
:1051200000F088FB01E000F0B1FC58B10E492046C8
:10513000096849698847032802D018B108200DE0A2
:1051400009200BE0094A062000211268084B1204CE
:1051500003EBD2325160074A30211180296808726E
:1051600070BD0000080600200C060020505C0040C6
:10517000006000401806002010B50F4C2068007A2F
:10518000022811D004280FD0032804D0052802D00B
:10519000072805D008E0FEF783FA2068007A04E0CB
:1051A00006480068C0688047082021680872BDE88A
:1051B000104000F015B80000080600200C06002082
:1051C000064B521C520803EB410105D031F8043B59
:1051D00020F8023B521EF9D17047000000600040E9
:1051E0000C4810B590F82C10002000F0F1F90A4896
:1051F0000068007A082802D0092809D006E007498B
:105200004FF480500880064910200880002010BD0F
:10521000012010BD78050020080600201606002099
:105220001806002010B5012000F02AFD06480121D3
:1052300001600021054A0160031D19604FF4E0512F
:1052400011800160002010BD405C00401406002069
:10525000034A516821F44041014351607047000006
:1052600000100240044A0029516901D0014300E0C6
:10527000814351617047000000100240044A002938
:10528000D16901D0014300E08143D1617047000042
:1052900000100240044A0029916901D0014300E056
:1052A000814391617047000000100240044A0029C8
:1052B000D16801D0014300E08143D1607047000014
:1052C000001002400149C1F8D80070470000424276
:1052D0002DE9F041214C072800D0207020781F4D87
:1052E0000626052204271E4906280BD2DFE800F017
:1052F000030C11161E27686810B12270BDE8F081FA
:1053000000F030F82670F9E700F02CF82770012043
:1053100022E00220607003202070EFE76078401EDA
:10532000607060780028E9D12770E7E7086880B2EC
:1053300040F01000086022700A206070DEE760789C
:10534000401E607060780028D8D1086880B220F0D4
:1053500010000860267000206860CFE7F805002084
:10536000405C004010B5064C206880B220F004007C
:105370002060FFF7D7FC4FF43F40206010BD0000D5
:10538000405C004007480068052809D106490868C4
:10539000401C0860062803D100200860FEF7F6BA1A
:1053A00070470000F0050020140500200029018846
:1053B00002D041F0400101E021F04001018070473E
:1053C0000246002012890A4200D0012070478089DD
:1053D00070478181704730B502884C8802F4415390
:1053E0000A88CD8822438C882C4322430C8922438F
:1053F0004C8922438C892243CC8922431A43028060
:10540000828B22F400628283098A018230BD10B54A
:105410000446FFF7DEFF02212046FFF7D1FF0028F8
:10542000F9D001212046FFF7CBFF0028F9D0204614
:10543000FFF7CDFFC0B210BD10B5064C01462046A7
:10544000FFF7C7FF02212046FFF7BAFF0028F9D077
:1054500010BD00000038004010B5002305E030F812
:10546000024B21F813405B1C9BB29342F7D310BD53
:105470002DE9F05FA0F10064154688468246B4F538
:10548000003F51D2FEF78AFBA70AC4F34806C6F5CF
:105490000074A54200D82C46DFF890B04FF00060B1
:1054A00000EB872081464FF400722049FFF7D4FFBC
:1054B00000204FF6FF7206E033183BF813109142BC
:1054C00003D1401C80B2A042F6D3A04224D2484669
:1054D000FEF710FB00205A4606E038F8101083193A
:1054E000401C22F8131080B2A042F6D348464FF475
:1054F00000720E4900F01CF8A54211D0281B08EBE1
:1055000044080AEB440A002685B24FF400747F1C5D
:10551000A542C3D82C46C1E7224641465046E9E79A
:10552000BDE8F05FFEF718BBBDE8F09FA00F0020BC
:105530002DE9F04116460F460546002407E037F8EE
:1055400014102846FEF710FB641CA4B2AD1CB44234
:10555000F5D3BDE8F0810000024920F007000860A3
:1055600070470000505C0040F0B50E490E4E48F602
:105570008F770D78002148F2800C0BE0CAB206EB61
:105580008203D3F8004C3C40144344EA0C04C3F8B3
:10559000004C491CA942F1D3044940F08000086046
:1055A000F0BD0000C8050020005000404C5C0040E9
:1055B000054A21F00101126892B202EBC000034AD1
:1055C00002EB400081607047505C0040006000408A
:1055D0000D4A12683E2992B202EBC0000B4A02EB60
:1055E000400209D94809C90601D1401E80B24FF4D2
:1055F000004141EA802004E04808C90700D0401C6F
:105600008002106070470000505C00400C60004059
:1056100082000A480244D2F8000C4BF68F731840FF
:10562000CB0401D580F48050890401D580F400506A
:1056300048F280010843C2F8000C70470050004057
:10564000810007480844D0F8001C4BF68F721140C7
:1056500081F4405148F280021143C0F8001C7047A9
:1056600000500040054A21F00101126892B202EB9D
:10567000C000034A42F8101070470000505C004020
:1056800000600040044A126892B202EBC000034A74
:1056900002EB400041607047505C004000600040F9
:1056A00082000A480244D2F8000C48F6BF73184042
:1056B000CB0601D580F01000890601D580F02000CE
:1056C00048F280010843C2F8000C704700500040C7
:1056D000810007480844D0F8001C48F6BF7211400A
:1056E00081F0300148F280021143C0F8001C70477D
:1056F00000500040820005481044D0F8002C48F6C5
:105700008F131A400A43C0F8002C70470050004025
:105710000CB50022264800920192016841F48031C4
:1057200001604FF4A063016801F400310191009918
:10573000491C0091019911B900999942F3D101686E
:10574000890333D5012101911A490A6842F01002F8
:105750000A600A6822F003020A600A6842F0020244
:105760000A604168416041684160416841F480617C
:105770004160416821F47C114160416841F4E811C5
:105780004160016841F08071016001688901FCD5C8
:10579000416821F003014160416841F0020141602C
:1057A0004168C1F381010229FAD10CBD01920CBDFF
:1057B000001002400020024010B50020FFF782FDDB
:1057C0000121BDE81040C805FFF758BD70B5164867
:1057D0000068174D0004C10B14480144098989B2BF
:1057E00000EB41042868017A09290FD02178017063
:1057F00061784170A088FDF774FD29684880208990
:10580000FDF76FFD29688880A089C880286801217C
:105810000172C08828B1FDF795FFBDE87040FFF721
:10582000DFBCFFF73FFCF8E7505C00400060004041
:10583000080600202DE9F04138480068017811F091
:105840007F0102D0022905D066E0417A01F0DF0134
:1058500041724EE0418800295ED10179F1BB417966
:10586000304D21F080040A0605EB84022C4BD2F85F
:10587000002C03D5C2F30112120102E0C2F301327F
:1058800012031E782346A64246D93AB3807A28B33B
:1058900008064FEA84000ED52844D0F8000CC0F367
:1058A0000110012821D11846FDF7E0FD20463021E6
:1058B000FFF7F6FE19E04619D6F8000CC0F30130E8
:1058C000012812D14BF68F7748F28008A4B1184610
:1058D000FDF7B8FDD6F8000C384000E01CE080F47D
:1058E000405040EA0800C6F8000C0F4800684069C4
:1058F00080470020BDE8F0810C4890F82C10002073
:10590000FFF766FED5F8000C384080F4405040EABE
:105910000800C5F8000CE8E70220EBE708060020C5
:10592000C805002000500040100600207805002027
:1059300010B5074C30B10748006800688047206800
:105940000A3010BD216801200882002010BD00002F
:105950000806002010060020054A13685A8A10B174
:105960000868104470478888801A188200207047A1
:105970000806002010B5074C30B107480068806861
:10598000804720680C3010BD21680120088200206B
:1059900010BD00000806002010060020204910B5A8
:1059A000096860B11F48002202800A7853060AD0B5
:1059B00002F07F02012A16D0022A16D001E002204E
:1059C0000882002010BD497A8A06027802D542F08A
:1059D000020201E002F0FD0249060270D1B211D4C8
:1059E00001F0FE0110E00F4810BD49790A070B06CF
:1059F0000D4901EB9261D1F8001C07D5C1F30111EB
:105A000006E0017841F00101017003E0C1F30131CA
:105A10000129F6D00548006800698047E3E70000E7
:105A2000080600200206002000500040100600205A
:105A30000A4810B500680A4AC1785278914203D8E2
:105A400082780AB982880AB1022010BD81720548A5
:105A5000006840688047002010BD00000806002054
:105A6000C805002010060020064810B50068417ADD
:105A700041F02001417204480068C069804700205D
:105A800010BD0000080600201006002070B51D485B
:105A90001D4D0268517921F0800005EB80000B0656
:105AA000D0F8003C21F0800403D5C3F301131B019F
:105AB00002E0C3F301331B03144D2D78A54210D926
:105AC000548874B96BB1927A5AB10906D0F8001CA7
:105AD00048F2800207D548F6BF73194081F01001E3
:105AE00006E0022070BD4BF68F73194081F480519F
:105AF0001143C0F8001C06480068806980470020F8
:105B000070BD00000806002000500040C8050020BD
:105B10001006002010B50E4C0E4A20681268C1789D
:105B200092694079904721688A7A22B118B9087938
:105B300008B9887808B1022010BD07480068C0681D
:105B4000804720684179C172C1780173002010BD7F
:105B5000080600200C0600201006002078B41C4B1C
:105B60000020009019681B4A8CB21B4902EB80058B
:105B7000D5F8005CADB241F82050401C0828F5D3A0
:105B800044F48060186040F00100186020F00104C7
:105B90001C600F48001D05686D05FCD54FF6FF35EC
:105BA0000560002051F8205002EB8006ADB2C6F827
:105BB000005C401C0828F5D344F008001860186801
:105BC00080B240F00400186078BCFDF78DBF000083
:105BD000405C004000500040544000204FF0E02165
:105BE0000428086903D020F004000861704740F0E1
:105BF0000400FAE710B506F035FA012803D0BDE835
:105C0000104005F0ABBE10BD0F4810B5016841F063
:105C10000101016041680D4A1140416001680C4A70
:105C200011400160016821F480210160416821F484
:105C3000FE0141604FF41F018160FFF769FD0549D6
:105C40004FF00060086010BD001002400000FFF837
:105C5000FFFFF6FE08ED00E006490020A1F8020172
:105C6000A1F8000101F58271A1F80201A1F800017B
:105C7000012070470C3D00204FF48020FDF7E6BE68
:105C80007047000006490548022208600272064A71
:105C90000448C1E901020068004700007440002088
:105CA0000806002078050020CC0500203EB54FF402
:105CB00080242046FDF7CAFE08208DF80900012542
:105CC00001948DF80A5001A8FDF7D6FE14208DF836
:105CD000000006248DF8014000208DF802008DF8A8
:105CE00003506846FFF798F92A208DF800008DF8D8
:105CF00001406846FFF790F93EBD00002DE9F041F4
:105D00004B4D88B0002428684A4E708070884A4FF6
:105D100039880840800507D54FF6FF502860307855
:105D2000401C3070FFF72EFB708839880840000453
:105D300001D5FDF7DBFA708839884FF6FF38084047
:105D4000400504D5C5F800803C484068804771880C
:105D500038880140890402D54DF6FF7129607188A9
:105D60000140C80405D54EF6FF7028600020FFF7FB
:105D7000AFFA70883988084000050BD530480078A4
:105D800010B1FFF7EBFE02E00220FFF7A1FA4FF29D
:105D9000FF702860708839880840C00545D54FF6E7
:105DA000FF6028602248001D00684FF000030004D7
:105DB00037D57068401C70607068032832D91C4861
:105DC000001F016809072DD4016889B2B1601D491F
:105DD0006A4601EB8407D7F8007CBFB242F8247012
:105DE000641C082CF5D3B46844F00104B460B468B2
:105DF000A4B20460B46824F00104B460B468A4B22E
:105E0000046028684005FCD5C5F80080002052F8E1
:105E1000204001EB8005A4B2C5F8004C401C0828C6
:105E2000F5D373600720FFF753FA08B0BDE8F0819F
:105E3000445C00401805002014060020780500206E
:105E4000F405002000500040FFF758BF10B504468D
:105E500001210420FFF71EFA0C49086824B14FF60F
:105E6000FD721040086010BD80B240F00200086072
:105E70000748016821F47F210160016841F44C3139
:105E8000016004490020C1F8B00110BD405C004031
:105E9000040801400000214205490020086005492E
:105EA0004FF43F4008800249091F086000207047F6
:105EB000445C00401406002070B500F07F060D46DB
:105EC0003046FEF7A9FE04463046FEF795FE014631
:105ED00022462846FFF774F9204670BD0849B1F8FC
:105EE00000218854B1F80001401CA1F80001B1F86C
:105EF0000001B0F5807F02D10020A1F800017047B9
:105F00000C3D00202DE9FC41064600200D460446CC
:105F1000084F009009E0305D8DF8040000236A46C8
:105F200001A9386805F048FF641CAC42F3DBBDE80A
:105F3000FC810000F4040020FEE70000084B10B5CF
:105F4000521C520803EB410109D010F8013B521ECC
:105F500010F8014B43EA042321F8043BF5D110BDAE
:105F600000600040104A10B500211268212802D0BC
:105F7000202807D016E0107800F07F00212811D1EA
:105F80000A4908E0107800F07F00212800D1084974
:105F9000084B2020187029B1002091615082884759
:105FA000002010BD022010BD08060020D15F0008AF
:105FB000456100085C0500200149FFF7CDBC0000E9
:105FC000700500200149FFF7C7BC000068050020EC
:105FD00008B1044870470449082009680882002075
:105FE0007047000060050020080600200549096888
:105FF000C978042901D900207047034A02EBC10186
:10600000FFF7AABC08060020A805002009B901284E
:1060100001D9022070470020704700000749096835
:10602000097801F07F01212903D1022803D0222819
:1060300001D00220704700207047000008060020B1
:10604000334810B50068334A00218172D279427218
:10605000C1720846FFF780FA4FF400710020FFF785
:1060600049FB10210020FFF71BFB40210020FFF718
:106070009FFA80210020FFF7F5FA0020FDF70AFAC9
:10608000254890F82C100020FFF7A2FA0020FFF717
:10609000D7FA00210120FFF72DFBC0210120FFF7D7
:1060A000E1FA20210120FFF7FBFA00210120FFF790
:1060B000AFFA4FF4C0610220FFF71CFB4FF4807170
:1060C0000220FFF7CFFA00210220FFF7A1FA2021DA
:1060D0000220FFF7E5FA00210320FFF70BFB4FF446
:1060E00088710320FFF764FA40210320FFF770FA5C
:1060F0004FF440510320FFF78BFA00210320FFF7F4
:10610000CFFA0020FFF730FA04490120086010BDE3
:1061100008060020CBF1000878050020F0050020DB
:106120000348807A002802D00249052008607047A1
:1061300074400020F00500200149042008607047E9
:10614000F005002008B10448704704490820096898
:10615000088200207047000060050020080600202B
:1061600010B5044C2078202803D1FFF775FD0020DE
:10617000207010BD5C0500207047000010B5FEF7D0
:1061800069FD0548002400688472FFF74BF8FFF7AB
:1061900083FE0248046010BD08060020F0050020C0
:1061A0000FB4084B10B504A902AA039800F0DEF85A
:1061B000044602A9002000F070FC204610BC5DF8E7
:1061C00014FB00009B6A000802E008C8121F08C107
:1061D000002AFAD170477047002001E001C1121F68
:1061E000002AFBD1704700002DE9FF5F82B000213B
:1061F000DDE90430020DDDF840B0034318D044F669
:106200001050A2F2FF3242431514119801281FD0FA
:10621000A5EB0B00401C5FEA000A4FF000064E4F52
:10622000DFF83891B046504615D5CAF1000413E0A6
:10623000119801244AA3012801D16FEA0B010298A9
:10624000119AC0E90031C0E9024206B0BDE8F09FF2
:10625000CBF10000DFE704460021404A491842EB39
:106260000450CDE9001012E0E00707D032463B466B
:1062700040464946FCF73CFB8046894632463B4651
:1062800010461946FCF734FB06460F466410002CF6
:10629000EAD1DDE90401DDE90023BAF1000F06DAF5
:1062A000FCF726FB42464B46FCF722FB05E0FCF7D9
:1062B00091FB42464B46FCF78DFB04460E460022FE
:1062C000284BFCF78DFC03D84FF0FF30014607E068
:1062D0000022254B20463146FCF763FAFCF7C4FD4B
:1062E000102409E0002C0ADB0A220023FCF7D6FC6C
:1062F000039B30321A55641E50EA0102F2D1641C2D
:10630000039AC4F111031444119A012A03D0012203
:1063100008430DD10AE0084304D000204FF0110BD0
:10632000119072E7A3EB0B056D1E0DE05B4504DDDC
:106330004FF0000205F1010504E003DA4FF000021E
:10634000A5F10105002AECD002981199C0E90231AB
:10635000C0E9004579E70000000014400000F03F6C
:10636000300000000000F0430000E03F2DE9FF4F47
:1063700095B09B468946064600250FE2252877D131
:1063800000242746F84A0121059400E0044316F84A
:10639000013F203B01FA03F01042F7D130782A2860
:1063A00011D06FF02F033078A0F13002092A16D8EF
:1063B000059A44F0020402EB820203EB420210440D
:1063C000761C0590EFE759F8042B0592002A03DAB2
:1063D000504244F40054059044F00204761C307896
:1063E0002E2816D116F8010F44F004042A280DD0E7
:1063F0006FF02F023078A0F13003092B09D807EB9A
:10640000870302EB4303C718761CF3E759F8047BB4
:10641000761C30786C280FD006DC4C2817D0682802
:106420000DD06A2814D104E0742810D07A280FD136
:106430000DE044F400140AE044F4801401E044F454
:1064400040147278824202D104F58014761C761CC6
:10645000307866280BD013DC582877D009DC002868
:1064600075D04528F6D04628F4D047281AD19DE1AA
:1064700018E0632835D0642879D0652812D195E1D9
:10648000702873D008DC6728F1D069286FD06E2897
:106490000DD06F2806D1B5E073282CD0752875D0A3
:1064A000782874D05A46179990476D1C75E1C4F34B
:1064B0000250022809D003280DD0D9F80010042872
:1064C0000DD00D6009F1040967E1D9F80010EA1751
:1064D000C1E90052F6E7D9F800100D80F2E70D701F
:1064E000F0E719F8041B8DF8001000208DF801006A
:1064F000EA46012003E059F804AB4FF0FF30610792
:106500004FF0000102D40DE008F101018846B942C4
:106510000FDA8045F8DB1AF808100029F4D108E0FA
:1065200008F1010188468142FADB1AF808100029B7
:10653000F6D105985B46A0EB080721463846179A26
:1065400000F094FA284400EB080507E04DE029E14B
:106550000DE01AF8010B5A4617999047B8F1010857
:10656000F7D25B4621463846179A13E142E00A22E9
:106570000092C4F302524FF0000A022A08D059F8E0
:1065800004CB032A4FEAEC710AD00DE029E02AE09F
:1065900009F1070121F00702F2E802C1914609E082
:1065A0000FFA8CFC4FEAEC71042A03D14FFA8CFCF1
:1065B0004FEAEC71002907DA0A460021DCF1000CF1
:1065C00061EB02012D2202E0220504D52B228DF879
:1065D0000420012203E0E20701D02022F7E79046E1
:1065E00059E00A2102E010220DE010214FF0000ACC
:1065F00000910BE010224FF0000A44F00404082739
:10660000009203E008224FF0000A0092C4F3025205
:10661000022A05D059F804CB0021032A08D009E04A
:1066200009F1070121F00702F2E802C1914605E0F5
:106630001FFA8CFC042A01D10CF0FF0C4FF000086B
:10664000220728D5702806D0009B83F0100353EA58
:106650000A0305D00EE040228DF80420012208E054
:106660005CEA010206D030228DF804208DF8050086
:1066700002229046009B83F0080353EA0A030AD1E2
:106680005CEA010201D1620705D530228DF80420B1
:106690004FF001087F1E582804D034A003900EA8A4
:1066A00002900DE036A0F9E753466046009AFCF7E9
:1066B000F5FA84460398825C0298401E02900270AC
:1066C0005CEA0100F0D1029806A9081A00F1200A3C
:1066D000600702D524F4803400E00127574502DD2D
:1066E000A7EB0A0000E0002000EB0A0100900598EB
:1066F0004144401A0590E00306D45B462146179AB0
:10670000059800F0B3F90544002706E001A85A46B1
:10671000C05D179990476D1C7F1C4745F6DBE00371
:106720000CD55B462146179A059800F09FF9054461
:1067300004E030205A46179990476D1C0099481E76
:1067400000900029F5DC08E0029802995A4600788A
:10675000491C0291179990476D1CBAF10001AAF1EA
:10676000010AF1DC65E10000092801003031323313
:10677000343536373839616263646566000000007D
:106780003031323334353637383941424344454667
:106790000000000000F058F90544761C307800280D
:1067A0007FF4ECAD19B02846BDE8F08F620700D445
:1067B000062709F1070222F0070CFCE80223E14654
:1067C00003F000485FEA080C02D00FF2702C0DE0D5
:1067D0005FEA045C02D50FF2682C07E05FEAC47C34
:1067E00002D00FF2602C01E0AFF2700C4FF0FF38D6
:1067F00023F00043CDF850C065280CD006DC4528B6
:1068000009D046281DD047283DD13DE0662818D044
:1068100067287ED138E00021112F01DB112000E034
:10682000781CCDE9000106A90EA8FFF7DDFCDDE923
:106830000F010E9A03910021009207F1010A0491C1
:106840004DE04FF000400097CDE9011006A90EA8D9
:10685000FFF7CAFCDDE90F0203920E9B119900229B
:10686000DDF80CA00093049211B9791C00EB010A29
:10687000B7EB0A0004D4C0F1FF3007F1010A04901D
:10688000AAEB0700019044E0012F00DA0127002164
:10689000112F01DD112000E03846CDE9000106A9E5
:1068A0000EA8FFF7A1FCDDE90F010E9A039100216C
:1068B00004910092BA4621070CD40399514500DA9D
:1068C0008A46BAF1010F05DD009AAAF10101515C77
:1068D000302908D0B84202DA10F1040F06DA01219B
:1068E000CDE9011015E0AAF10101E9E7002805DC76
:1068F000049901440491AAEB000102E0411C5145B6
:1069000000DD8A460499401A401C01904FF0004077
:106910000290200704D40198504501DBCDF8048093
:1069200000208DF84F0002980DF14F07B0F1004F95
:1069300025D02B200E9002984FF0020800280CDA88
:10694000404202902D200E9007E00A210298FCF7A9
:106950008FF93031029007F8011DB8F10001A8F15C
:106960000108F2DC02980028EFD1791E0E98087019
:10697000307800F0200040F0450007F8020D12A822
:10698000C01B00F107081498007800B1012000EB4B
:106990000A01019801EBE07105984144401A401E3C
:1069A0000590E00306D45B462146179A059800F04F
:1069B0005DF805441498007818B15A461799904725
:1069C0006D1CE00324D55B462146179A059800F01C
:1069D0004DF805441CE00498002807DBDDE90301BD
:1069E000884203DD0098405C179901E01799302038
:1069F0005A469047049805F10105401C04900198FF
:106A0000401E019004D12E205A46179990476D1CC4
:106A1000BAF10001AAF1010ADDDC05E017F8010B6B
:106A20005A46179990476D1CB8F10001A8F101086A
:106A3000F4DC5B462146179A0598ABE62D00000072
:106A40002B000000200000002DE9F0410446002545
:106A50001E461746880404D405E039462020B04776
:106A60006D1C641EF9D52846BDE8F0812DE9F04182
:106A7000044600251E469046C80301D5302700E095
:106A80002027880404D505E041463846B0476D1CF0
:106A9000641EF9D52846BDE8F0810A68531C0B60D6
:106AA00010707047FEE70000FEB504460078294DDF
:106AB000294E012815D0052835D050283FD0402830
:106AC0000ED1A078012842D0022809D154F8030F32
:106AD000009060680190A0680290684603F00EFC88
:106AE000FEBDA078E178000200B20843FBF7F8FF92
:106AF0003146FBF718FEA86020796179000200B2E8
:106B00000843FBF7EDFF3146FBF70DFEE860A07987
:106B1000E179000200B20843FBF7E2FF3146FBF7E0
:106B200002FE6860FEBDA078E178000200B2084372
:106B3000FBF7D6FF3146FBF7F6FD2861FEBDA078D6
:106B40000128FBD12046BDE8FE4001F0C7BDE0783A
:106B50002870FEBD580000200000C842F8B5144C53
:106B60002078002822D101211020FEF793FB4FF45A
:106B70008045ADF8005010208DF8030003200D4E25
:106B80008DF8020069463046FDF73AF8294630464E
:106B9000FDF7B7F808480090002301224FF47A71FE
:106BA00006A005F023FC606001202070F8BD000005
:106BB0006C00002000100140F59F000862656570C0
:106BC00054696D657200000010B5002301461A4635
:106BD00011F8014B521C2344DBB2382AF8D390F849
:106BE0003400181AC0B210BDF0B516480021164B7B
:106BF0004078114EDFF844C0DFF844E0134C0A46F9
:106C0000022703EBC005C1EBC10006EB8000477013
:106C10008270C0E901CE55F82130C0E90332C0E9E5
:106C20000542491C0229EEDB0120B07008483061A2
:106C30000848F062F0BD0000CC0A0020CBC6000876
:106C4000EBC600081C0600209C0300207C090020E5
:106C500095A8000871A800087F4E804CDFF80092CC
:106C6000DFF800A28EB04FF0010B00270A2004F0DD
:106C7000A7FA99F812004D4620B1012804D0022845
:106C800005D103E0754C02E0774C00E0774C08A892
:106C9000FCF706FA287CA946F0B3022847D0304614
:106CA000FBF772FF0022724BFBF71CFE054688467D
:106CB0000B98FBF769FF2A464346FBF719FEFBF7E3
:106CC000A7FFDFF8B08155464146FBF7A2FC3246EC
:106CD0004146E86001F002FAE86021460898FBF7B7
:106CE000F0FC554684F000412246CAF8000001F04D
:106CF000F5F9286021460998FBF7E3FC84F0004190
:106D00002246686001F0EAF9DFF86C81686041466C
:106D10000A98FBF7D6FC00E009E042465749A86014
:106D200001F0DCF9A86000F063FE70B151E0DFF81B
:106D300050810B984146FBF7C4FC55464146FBF792
:106D400068FC504A0021E860C4E702F037FF78B3DE
:106D500000F072FD60B399F8110010B1012805D15F
:106D600002E08DF819B001E08DF8197099F8100063
:106D7000C84620B1012805D0022809D105E08DF8C8
:106D800018B005E08DF8187002E003208DF81800A7
:106D90003849E868884202DC9DF8181031B1039048
:106DA00000F02CFE28B10197009706E00397F7E763
:106DB0000FE06868019028680090A8680290D8F8F1
:106DC0002C100491D8F8300005901B21684603F080
:106DD00061F902F0F3FE00283FF448AF1F49E8686C
:106DE000FBF76FFC2849FBF714FCFBF7B9FE274DB6
:106DF000ADF8360029460998FBF763FCDFF8908070
:106E00004146FBF706FCFBF7ABFEADF83200294626
:106E10000898FBF756FC4146FBF7FBFBFBF7A0FE8F
:106E2000ADF8300029460A98FBF74BFC4146FBF7CA
:106E3000F0FBFBF795FEADF8340003208DF8000061
:106E400008228DF801200CA90DF10200FBF7B6FB1A
:106E5000684602F04DFF09E70000BE4200002041F5
:106E60001C06002074060020000090410000F04144
:106E7000000039400000C84100004843000048C3FA
:106E8000000048420000C84200007A440000FA4373
:106E90000080BB442DE9F041114C6078002812D1EC
:106EA0001C2210491048FEF7D7FA0E4D0026012784
:106EB00028780D2809D12846FFF786FE95F834106A
:106EC000814202D1A770BDE8F0810549A670382241
:106ED000091D0448FBF772FB04F0D4FCF2E7000044
:106EE0001C0000201C06002000FC010810B50B4906
:106EF00086B018220C466846FBF760FB074838222C
:106F000007491438FBF75AFB182269462046FBF75D
:106F100055FB04F0B7FC06B010BD000030060020A1
:106F200020000020124D0126124CDFF84C904FF447
:106F30007A780027404604F043F90D48FFF744FEF5
:106F400095F83410814203D085F83400267002E0B1
:106F500020780028EED02078401CC0B2207006288F
:106F6000E8D927701C2202494846FEF781FAE1E77A
:106F70001C0600201C00002000FC01082DE9F04345
:106F80001B4E0021DFF864C070781A4ADFF8689061
:106F900000EB4000194D0B4603270CF1200802EBD3
:106FA0008004C1EBC10005EB800047708370C0E92D
:106FB00001C854F82120C260C0E90593491C032987
:106FC000EFDB0F4828610F48E8620F48A864307C67
:106FD000012138B1012807D0022801D185F83A10E3
:106FE000BDE8F083A970FBE7A977F9E7CBC60008F5
:106FF0001C06002058020020C0060020D8070020F0
:10700000E1A00008F5A00008CDA00008002801DBE1
:10701000024600E042428A4201DA0020704700281E
:1070200002DDA0EB01007047FDDA08447047000064
:107030002DE9F0438DB008A800F0E2FBDDE909403E
:107040008046182102A80B9F089EFBF7D0FA02F099
:10705000BBFD024658A102A8FFF7A2F84FF00C09A9
:107060000021062302AA0846CDF8009001F0CCFFCB
:10707000182102A8FBF7BBFA2046FBF785FD044662
:107080000D463846FBF780FD02460B4650A102A88C
:10709000CDE90045FFF784F80827062302AA0D2151
:1070A0000020009701F0B0FF182102A8FBF79FFA1B
:1070B0003046FBF769FD04460D464046FBF764FD8C
:1070C00002460B4648A102A8CDE90045FFF768F843
:1070D000062302AA16210020009701F095FF18212F
:1070E00002A8FBF784FA464846A1027802A8FFF7F7
:1070F00057F8062302AA22210020CDF8009001F0C3
:1071000083FF182102A8FBF772FA44480068FBF7D6
:107110003BFD044642480D460068FBF735FD02463C
:107120000B4640A102A8CDE90045FFF739F802A8B7
:10713000FBF768FA0026152801D98DF81D60062393
:1071400002AA2F210020009701F05EFF182102A85B
:10715000FBF74DFA39480068FBF716FD044638483E
:107160000D460068FBF710FD02460B461EA102A863
:10717000CDE90045FFF714F802A8FBF743FA1528FC
:1071800001D98DF81D60062302AA3821002000973E
:1071900001F03AFF00F00AFC012807D0032802D1D1
:1071A000002003F0BDF80DB0BDE8F08300210420FD
:1071B00002F056FFF7E700002053454E44202D2DE6
:1071C0002D3E2020464E554D3A25336400000000E8
:1071D0005448523A25342E306620202020504954FD
:1071E0003A25352E316600005941573A25342E3064
:1071F0006620202020524F4C3A25352E3166000063
:1072000058000020204241434B203C2D2D2D2020B2
:10721000525353493A2533640000000064000020B3
:10722000680000204241543A25342E326620202046
:10723000205049543A25352E316600006000002068
:107240005C00002010B50420FEF7C8FC0C480D4976
:107250000D4A0068B0FBF1F3B0FBF1F14FF47A7026
:1072600041431370012050804FF0E020026942F04A
:10727000020202614161016941F00101016110BD39
:107280000400002040420F001800002070B50446A2
:1072900004F0E8FE01280CD0094D6888844203D32D
:1072A000B4FBF0F003F08CFF6888B4FBF0F100FB56
:1072B00011444FF47A706043BDE8704000F002B8AA
:1072C0001800002070B54FF0E02500216C69094AD4
:1072D000AB6912785043AA699A42FCD002D2A3EB60
:1072E000020302E0A4EB0206334419441346814230
:1072F000F1D370BD1800002010B500F039FF00F088
:107300001FFAFFF73BFE00F01BFE00F0CFF900F084
:107310008FF900F059F800F083FEFFF765FCBDE837
:10732000104004F053BA0000114C322003F048FF23
:107330002078072819D2DFE800F004070A0D10139F
:10734000160000F07FFF10E003F0C2F90DE0FDF73A
:10735000F9FC0AE0FFF76CFE07E000F0C7FB04E071
:1073600001F0D4F801E002F0E5FDFDF75BFBDCE79E
:10737000C000002009490120096809B100207047B8
:107380000749CA69002AF9D1044A89682832126873
:10739000491E8A42F3D1022070470000A814002041
:1073A0007404002010B5074C054804F11C0160600E
:1073B000A0688861002002F0B3FF0120207010BD9A
:1073C000C006002088010020F0B516480021164AAA
:1073D0004078124B124E154F0C46012502EB00125D
:1073E000C1EBC10003EB800045708570C0E901640A
:1073F00052F821C0C0F80CC0C0E90447491C8461A0
:107400000429EDDB0A4858630A480B49D86219651C
:1074100098640A49D9665866F0BD00004409002006
:10742000ABC600081C060020F4020020C0060020A5
:10743000B4090020917A0008CC0A0020040B002037
:107440000A4938B1012808D002280BD0032808D1F6
:10745000074804E00648543801E005483838C1F8C8
:107460008800704702481C38F9E70000C006002079
:10747000980900202DE9FC4100253F237F22182197
:107480002846009501F078FC012000F0DBF9644CFF
:10749000052805D1012000F02FFA062800D125701B
:1074A000012000F0CFF90126062805D1012000F0C7
:1074B00023FA052800D12670012310222B21142045
:1074C000FCF7BEFD012311222B211420FCF7B8FD8F
:1074D000DFF85081182198F81000E8B301284FF028
:1074E0000C0341D05422CDE900161E210E2001F0DC
:1074F00095FC1E27009720784B49C0EB001001EB4C
:10750000C0023B461C21312001F024FD009798F871
:1075100011004649C0EB001001EBC00247461E2394
:107520001C215E2001F016FD012310222B216D206D
:10753000FCF786FD012311222B216D20FCF780FD35
:1075400000F034FA052811D001281AD007281DD0E0
:10755000042825D0032800E003E023D008283AD0EF
:107560003EE00C234822BEE74D22BCE7207A21787A
:10757000884335D0387C08B1022831D1002103205E
:1075800001E00021042002F06BFD29E0207A21783F
:10759000884325D06670002002F010FD01201DE018
:1075A00003201BE0207A21788843A179884317D0F3
:1075B000F87CA8B9387C022812D0A07890F001009D
:1075C000A07025734FF0010002D002F0F7FC07E035
:1075D00003F05CF804E0207810B1022002F0A0FE75
:1075E000A078002819D0002000F086F9060009D004
:1075F000A570012003F04AF83146BDE8FC410520A2
:1076000002F02EBD207B401CC0B220731E2804D97E
:10761000A570012003F03AF82573BDE8FC81000055
:10762000080100201C06002069EF000859F000083E
:107630002DE9F043174E0021DFF854C0164A707848
:10764000DFF85890164D0B4602270CF1200802EB8C
:10765000C004C1EBC10005EB800047708370C0E936
:1076600001C854F82120C260C0E90593491C0229D1
:10767000EFDB0C4828610C48E862F07C012120B166
:10768000012800D1A977BDE8F083A970FBE70000CD
:10769000CBC600081C060020B8020020C00600204F
:1076A000B808002059A1000845A100082DE9F043C1
:1076B0001C4E0021DFF868C070781B4BDFF86C901F
:1076C00000EB40001A4D0A4603270CF1200803EB9B
:1076D0008004C1EBC10005EB800047708270C0E9F7
:1076E00001C854F82130C0E90332C0E90592491CB1
:1076F0000329EEDB0F4828610F48E8620F48A864B1
:10770000B07C012138B1012807D0022801D185F8C9
:107710003A10BDE8F083A970FBE7A977F9E700000C
:10772000CBC600081C06002094020020C0060020E2
:10773000640800201DA1000831A1000809A100086B
:107740002DE9F043174E0021DFF854C0164B707836
:10775000DFF85890164D0A4602270CF1200803EB7B
:10776000C004C1EBC10005EB800047708270C0E926
:1077700001C854F82130C0E90332C0E90592491C20
:107780000229EEDB0B4828610B48E862707C01217E
:1077900020B1012800D1A977BDE8F083A970FBE7EB
:1077A000CBC600081C0600207C020020C00600207A
:1077B0002C0800206DA1000881A1000810B500224E
:1077C000084B114601EB81040444491C33F8144072
:1077D000C9B222440A29F5D30A20B2FBF0F080B2E4
:1077E00010BD00003C0B002010B5FAF70BFF80B273
:1077F00000EB40004FF6FF7101EA400010BD0000B1
:10780000024910B51EC980E81E0010BD7406002094
:1078100010B504460420FFF7D1FFE0800120FFF7F8
:10782000CDFF20800220FFF7C9FF60800320FFF713
:10783000C5FFA08010BD00000148007A704700001D
:10784000080100207CB5064600246846FFF7E0FFEB
:10785000284D01230EB12B7001E0287878B36868B9
:10786000BDF80620418801F54876B24201D90124CD
:1078700013E0A1F548718A420FDA818ABDF804202D
:10788000022401F54876B24201D9062413E0A1F59D
:1078900048718A4201DA05240DE0808ABDF804109F
:1078A00000F54872914201D9042404E0A0F5487023
:1078B000814200DA032400202870C4B118E0FFE7F9
:1078C0006A68BDF806105088A0F54876B1420FDB13
:1078D00000F5487081420BD8908ABDF80410A0F5DD
:1078E0004872914204DB00F54870814200D82B7049
:1078F00020467CBD840000207CB5064600246846F6
:10790000FFF786FF284D01230EB16B7001E0687808
:1079100078B36868BDF80220C18901F54876B242A3
:1079200001D9012413E0A1F548718A420FDA0189D7
:10793000BDF80020022401F54876B24201D90624A0
:1079400013E0A1F548718A4201DA05240DE00089AF
:10795000BDF8001000F54872914201D9042404E0FA
:10796000A0F54870814200DA032400206870C4B199
:1079700018E0FFE76A68BDF80210D089A0F54876E4
:10798000B1420FDB00F5487081420BD81089BDF879
:107990000010A0F54872914204DB00F54870814266
:1079A00000D86B7020467CBD840000200249002274
:1079B00008790A71704700008C000020002142788D
:1079C00007E0C1EBC10300EB83039B78012B02D0DE
:1079D000491C8A42F5DCC8B2704710B5FAF712FEAE
:1079E00080B200EB40004FF6FF7101EA400010BD8D
:1079F00001480078704700000801002001484078E5
:107A0000704700000801002010B5FAF7FBFD80B2B6
:107A100000EB40004FF6FF7101EA400010BD10B5C9
:107A2000FFF7C0FCBDE81040042002F079BC000064
:107A3000114830B401694A69D2B100228A704169A3
:107A40004268C1EBC10102EB8101012401618C702C
:107A500001690A4D00F11C034A694260AA4201D142
:107A6000816801E0C968891C9961047030BC704765
:107A700030BCFFF797BC000088010020C006002042
:107A800010B5FFF78FFCBDE81040052002F048BCA0
:107A9000094A1069816941B15160C06802F11C0155
:107AA000801C886101201070704701690029FBD09B
:107AB00040690028F8D108478801002010B5FFF779
:107AC00071FCBDE81040062002F02ABC0548816820
:107AD000122905D1C0680449884201D101207047AC
:107AE000002070471C0600209A7856342DE9F04F8C
:107AF00093B010A8FFF78CFEDFF838A20026DFF85D
:107B000038B29AF800000AF102044FF00C0904F1AF
:107B1000080500285ED1002126237F220846009612
:107B200001F02AF99BF801000E27012800D11A273D
:107B30004FF001087F49CDE9009814310C2351F82A
:107B400020200021084602F085FCCDE90098794903
:107B50009BF8010020310C2351F8202039460020E9
:107B600002F078FCB4F90010BDF84000814200DA60
:107B700001462180B5F90010814200DC08462880CA
:107B8000B4F90210BDF84200814200DA014661807A
:107B9000B5F90210814200DC08466880B4F904108F
:107BA000BDF84400814200DA0146A180B5F9041015
:107BB000814200DC0846A880B4F90610BDF84600F2
:107BC000814200DA0146E180B5F90610814200DC0D
:107BD0000846E8809AF80000D046012856D10021D6
:107BE00026237F220846009601F0C6F89BF8010084
:107BF0000E27012800D11A274FF0010A4D49CDE97F
:107C0000009A2C310C2351F820200021084602F064
:107C100021FCCDE9009A47499BF8010038310C233B
:107C200051F820203946002002F014FCBDF8400035
:107C3000ADF83000BDF84420BDF84230ADF83C202E
:107C4000BDF84610ADF83630ADF82A1027883F1A37
:107C5000ADF82E702F88C01BADF832006088C01AB6
:107C6000ADF834006888181AADF83800A088801A7A
:107C7000ADF83A00A888101AADF83E00E088401A26
:107C8000ADF82800E888081AADF82C00162102A8E3
:107C9000FAF7ADFCBDF84230BDF8462027A102A896
:107CA000FEF77EFA0827062302AA2C21002000975F
:107CB00001F0AAF9162102A8FAF799FCBDF84030A4
:107CC000BDF8442022A102A8FEF76AFA062302AA00
:107CD00036210020009701F097F9FFF767FE03288F
:107CE00004D0012822D188F800601CE098F8000038
:107CF000401CC0B288F80000022817D10E4888F84E
:107D0000006018220AA91430FAF758FC03F0BAFDF3
:107D100000204FF47A7125F8101024F81010401C40
:107D2000C0B20428F7D3002002F0FAFA13B0BDE87D
:107D3000F08F0000C40000201C0600205448523A76
:107D4000253464202020205049543A253464000012
:107D50005941573A25346420202020524F4C3A256F
:107D60003464000010B5054CA078002805D1FBF75D
:107D700019FA034860600120A07010BD8400002043
:107D80003006002008B501211C20FDF783FA4FF4CE
:107D90008070ADF8000048208DF8030069460A485D
:107DA000FBF72EFF4FF44060ADF80000694607482E
:107DB000FBF726FF4FF40040ADF800006946044889
:107DC000FBF71EFF08BD000000080140000C014049
:107DD000001001400125DFF85881564C4FF4006B2C
:107DE00000264FF4FA77142003F0EAF9207840B91E
:107DF00059464046FBF77EFF18B9257004F040F95C
:107E0000A060607848B94FF400414B48FBF772FF1F
:107E100018B9657004F034F9A060A07848B94FF43F
:107E200080614046FBF766FF18B9A57004F028F999
:107E3000A060E07848B94FF480714048FBF75AFFE2
:107E400018B9E57004F01CF9A0602078B8B1D946E3
:107E500059464046FBF74EFF012800D1267004F03A
:107E60000FF9A168401AB84202D90220207106E039
:107E700049464046FBF73EFF012800D12571607856
:107E8000D0B1DFF8B4A04FF4004949465046FBF7A3
:107E900031FF012800D1667004F0F2F8A168401AA1
:107EA000B84201D9042006E049465046FBF722FFBC
:107EB000012801D103202071A078C0B14FF480695E
:107EC00049464046FBF716FF012800D1A67004F092
:107ED000D7F8A168401AB84201D9062006E0494601
